{"abi":[{"type":"function","name":"checkRewards","inputs":[{"name":"_staker","type":"address","internalType":"address"}],"outputs":[{"name":"userPendingRewards","type":"uint256","internalType":"uint256"}],"stateMutability":"view"},{"type":"function","name":"stake","inputs":[{"name":"_amount","type":"uint256","internalType":"uint256"}],"outputs":[],"stateMutability":"nonpayable"},{"type":"function","name":"unstake","inputs":[{"name":"_amount","type":"uint256","internalType":"uint256"}],"outputs":[],"stateMutability":"nonpayable"},{"type":"event","name":"Stake","inputs":[{"name":"_staker","type":"address","indexed":false,"internalType":"address"},{"name":"_amount","type":"uint256","indexed":false,"internalType":"uint256"},{"name":"_timeStaked","type":"uint256","indexed":false,"internalType":"uint256"}],"anonymous":false},{"type":"event","name":"Transfer","inputs":[{"name":"_from","type":"address","indexed":true,"internalType":"address"},{"name":"_to","type":"address","indexed":true,"internalType":"address"},{"name":"_value","type":"uint256","indexed":false,"internalType":"uint256"}],"anonymous":false},{"type":"event","name":"y","inputs":[{"name":"","type":"uint256","indexed":false,"internalType":"uint256"}],"anonymous":false},{"type":"error","name":"NoMoney","inputs":[{"name":"balance","type":"uint256","internalType":"uint256"}]}],"bytecode":{"object":"0x608060405234801561001057600080fd5b5061057d806100206000396000f3fe608060405234801561001057600080fd5b50600436106100415760003560e01c8063046ff0d3146100465780632e17de781461006b578063a694fc3a14610080575b600080fd5b610059610054366004610483565b610093565b60405190815260200160405180910390f35b61007e6100793660046104b3565b61011d565b005b61007e61008e3660046104b3565b61026f565b6001600160a01b0381166000908152600a60209081526040808320815180830190925280548083526001909101549282019290925290156101175780516000906100dd90426104e2565b90506000607883602001516100f291906104fb565b90506000610105640757ee350083610512565b905061011183826104fb565b94505050505b50919050565b336000818152600a602052604081209161013690610093565b9050828260010154101561016e578160010154604051631a904e3760e31b815260040161016591815260200190565b60405180910390fd5b306000908152600660205260408120805485929061018d9084906104e2565b92505081905550828260010160008282546101a891906104e2565b909155505060018201546101bd5760006101bf565b425b82556101cc30338561037a565b6040518181527f6259e7e108b524e2abb19c804cb823c8d5f03e1e64e07f309c2459f36907ffe19060200160405180910390a1801561026a576008546040516340c10f1960e01b8152336004820152602481018390526001600160a01b03909116906340c10f1990604401600060405180830381600087803b15801561025157600080fd5b505af1158015610265573d6000803e3d6000fd5b505050505b505050565b600081116102a95760405162461bcd60e51b81526020600482015260076024820152664e6f745a65726f60c81b6044820152606401610165565b336102b357600080fd5b33600090815260066020526040902054818110156102ff5760405162461bcd60e51b815260206004820152600960248201526809cdee88adcdeeaced60bb1b6044820152606401610165565b61030a33308461037a565b336000908152600a6020526040812042815560018101805491928592610331908490610534565b90915550506040805133815260208101859052428183015290517f5af417134f72a9d41143ace85b0a26dce6f550f894f2cbc1eeee8810603d91b69181900360600190a1505050565b33600090815260066020526040812054828110156103e65760405162461bcd60e51b8152602060048201526024808201527f45524332303a204e6f7420656e6f75676820746f6b656e7320746f207472616e60448201526339b332b960e11b6064820152608401610165565b6103f083826104e2565b6001600160a01b0380871660009081526006850160205260408082209390935590861681529081208054859290610428908490610534565b92505081905550836001600160a01b0316856001600160a01b03167fddf252ad1be2c89b69c2b068fc378daa952ba7f163c4a11628f55a4df523b3ef8560405161047491815260200190565b60405180910390a35050505050565b60006020828403121561049557600080fd5b81356001600160a01b03811681146104ac57600080fd5b9392505050565b6000602082840312156104c557600080fd5b5035919050565b634e487b7160e01b600052601160045260246000fd5b818103818111156104f5576104f56104cc565b92915050565b80820281158282048414176104f5576104f56104cc565b60008261052f57634e487b7160e01b600052601260045260246000fd5b500490565b808201808211156104f5576104f56104cc56fea2646970667358221220ba41346274b6ac0d353de654bd2e48a421a53b9ee6dfcd5b00bba22da0b6aa0764736f6c63430008180033","linkReferences":{}},"methodIdentifiers":{"checkRewards(address)":"046ff0d3","stake(uint256)":"a694fc3a","unstake(uint256)":"2e17de78"},"id":8}