{"abi":[{"type":"constructor","inputs":[],"stateMutability":"nonpayable"},{"type":"function","name":"approve","inputs":[{"name":"to","type":"address","internalType":"address"},{"name":"tokenId","type":"uint256","internalType":"uint256"}],"outputs":[],"stateMutability":"nonpayable"},{"type":"function","name":"balanceOf","inputs":[{"name":"owner","type":"address","internalType":"address"}],"outputs":[{"name":"","type":"uint256","internalType":"uint256"}],"stateMutability":"view"},{"type":"function","name":"generateCharacter","inputs":[{"name":"tokenId","type":"uint256","internalType":"uint256"}],"outputs":[{"name":"","type":"string","internalType":"string"}],"stateMutability":"view"},{"type":"function","name":"getApproved","inputs":[{"name":"tokenId","type":"uint256","internalType":"uint256"}],"outputs":[{"name":"","type":"address","internalType":"address"}],"stateMutability":"view"},{"type":"function","name":"getLevels","inputs":[{"name":"tokenId","type":"uint256","internalType":"uint256"}],"outputs":[{"name":"","type":"string","internalType":"string"}],"stateMutability":"view"},{"type":"function","name":"getTokenURI","inputs":[{"name":"tokenId","type":"uint256","internalType":"uint256"}],"outputs":[{"name":"","type":"string","internalType":"string"}],"stateMutability":"view"},{"type":"function","name":"isApprovedForAll","inputs":[{"name":"owner","type":"address","internalType":"address"},{"name":"operator","type":"address","internalType":"address"}],"outputs":[{"name":"","type":"bool","internalType":"bool"}],"stateMutability":"view"},{"type":"function","name":"mint","inputs":[],"outputs":[],"stateMutability":"nonpayable"},{"type":"function","name":"name","inputs":[],"outputs":[{"name":"","type":"string","internalType":"string"}],"stateMutability":"view"},{"type":"function","name":"ownerOf","inputs":[{"name":"tokenId","type":"uint256","internalType":"uint256"}],"outputs":[{"name":"","type":"address","internalType":"address"}],"stateMutability":"view"},{"type":"function","name":"safeTransferFrom","inputs":[{"name":"from","type":"address","internalType":"address"},{"name":"to","type":"address","internalType":"address"},{"name":"tokenId","type":"uint256","internalType":"uint256"}],"outputs":[],"stateMutability":"nonpayable"},{"type":"function","name":"safeTransferFrom","inputs":[{"name":"from","type":"address","internalType":"address"},{"name":"to","type":"address","internalType":"address"},{"name":"tokenId","type":"uint256","internalType":"uint256"},{"name":"data","type":"bytes","internalType":"bytes"}],"outputs":[],"stateMutability":"nonpayable"},{"type":"function","name":"setApprovalForAll","inputs":[{"name":"operator","type":"address","internalType":"address"},{"name":"approved","type":"bool","internalType":"bool"}],"outputs":[],"stateMutability":"nonpayable"},{"type":"function","name":"supportsInterface","inputs":[{"name":"interfaceId","type":"bytes4","internalType":"bytes4"}],"outputs":[{"name":"","type":"bool","internalType":"bool"}],"stateMutability":"view"},{"type":"function","name":"symbol","inputs":[],"outputs":[{"name":"","type":"string","internalType":"string"}],"stateMutability":"view"},{"type":"function","name":"tokenIdToLevels","inputs":[{"name":"","type":"uint256","internalType":"uint256"}],"outputs":[{"name":"","type":"uint256","internalType":"uint256"}],"stateMutability":"view"},{"type":"function","name":"tokenURI","inputs":[{"name":"tokenId","type":"uint256","internalType":"uint256"}],"outputs":[{"name":"","type":"string","internalType":"string"}],"stateMutability":"view"},{"type":"function","name":"transferFrom","inputs":[{"name":"from","type":"address","internalType":"address"},{"name":"to","type":"address","internalType":"address"},{"name":"tokenId","type":"uint256","internalType":"uint256"}],"outputs":[],"stateMutability":"nonpayable"},{"type":"event","name":"Approval","inputs":[{"name":"owner","type":"address","indexed":true,"internalType":"address"},{"name":"approved","type":"address","indexed":true,"internalType":"address"},{"name":"tokenId","type":"uint256","indexed":true,"internalType":"uint256"}],"anonymous":false},{"type":"event","name":"ApprovalForAll","inputs":[{"name":"owner","type":"address","indexed":true,"internalType":"address"},{"name":"operator","type":"address","indexed":true,"internalType":"address"},{"name":"approved","type":"bool","indexed":false,"internalType":"bool"}],"anonymous":false},{"type":"event","name":"BatchMetadataUpdate","inputs":[{"name":"_fromTokenId","type":"uint256","indexed":false,"internalType":"uint256"},{"name":"_toTokenId","type":"uint256","indexed":false,"internalType":"uint256"}],"anonymous":false},{"type":"event","name":"MetadataUpdate","inputs":[{"name":"_tokenId","type":"uint256","indexed":false,"internalType":"uint256"}],"anonymous":false},{"type":"event","name":"Transfer","inputs":[{"name":"from","type":"address","indexed":true,"internalType":"address"},{"name":"to","type":"address","indexed":true,"internalType":"address"},{"name":"tokenId","type":"uint256","indexed":true,"internalType":"uint256"}],"anonymous":false},{"type":"error","name":"ERC721IncorrectOwner","inputs":[{"name":"sender","type":"address","internalType":"address"},{"name":"tokenId","type":"uint256","internalType":"uint256"},{"name":"owner","type":"address","internalType":"address"}]},{"type":"error","name":"ERC721InsufficientApproval","inputs":[{"name":"operator","type":"address","internalType":"address"},{"name":"tokenId","type":"uint256","internalType":"uint256"}]},{"type":"error","name":"ERC721InvalidApprover","inputs":[{"name":"approver","type":"address","internalType":"address"}]},{"type":"error","name":"ERC721InvalidOperator","inputs":[{"name":"operator","type":"address","internalType":"address"}]},{"type":"error","name":"ERC721InvalidOwner","inputs":[{"name":"owner","type":"address","internalType":"address"}]},{"type":"error","name":"ERC721InvalidReceiver","inputs":[{"name":"receiver","type":"address","internalType":"address"}]},{"type":"error","name":"ERC721InvalidSender","inputs":[{"name":"sender","type":"address","internalType":"address"}]},{"type":"error","name":"ERC721NonexistentToken","inputs":[{"name":"tokenId","type":"uint256","internalType":"uint256"}]}],"bytecode":{"object":"0x60806040523480156200001157600080fd5b506040518060400160405280600d81526020016c436861696e20426174746c657360981b815250604051806040016040528060058152602001644342544c5360d81b815250816000908162000067919062000126565b50600162000076828262000126565b505050620001f2565b634e487b7160e01b600052604160045260246000fd5b600181811c90821680620000aa57607f821691505b602082108103620000cb57634e487b7160e01b600052602260045260246000fd5b50919050565b601f82111562000121576000816000526020600020601f850160051c81016020861015620000fc5750805b601f850160051c820191505b818110156200011d5782815560010162000108565b5050505b505050565b81516001600160401b038111156200014257620001426200007f565b6200015a8162000153845462000095565b84620000d1565b602080601f831160018114620001925760008415620001795750858301515b600019600386901b1c1916600185901b1785556200011d565b600085815260208120601f198616915b82811015620001c357888601518255948401946001909101908401620001a2565b5085821015620001e25787850151600019600388901b60f8161c191681555b5050505050600190811b01905550565b61195180620002026000396000f3fe608060405234801561001057600080fd5b50600436106101165760003560e01c80636352211e116100a2578063b88d4fde11610071578063b88d4fde1461023b578063c6a4342f1461024e578063c87b56dd1461026e578063e985e9c514610281578063f43785f91461029457600080fd5b80636352211e146101ec57806370a08231146101ff57806395d89b4114610220578063a22cb4651461022857600080fd5b80630daefed5116100e95780630daefed5146101985780631249c58b146101ab57806323b872dd146101b35780633bb3a24d146101c657806342842e0e146101d957600080fd5b806301ffc9a71461011b57806306fdde0314610143578063081812fc14610158578063095ea7b314610183575b600080fd5b61012e610129366004611049565b6102a7565b60405190151581526020015b60405180910390f35b61014b6102d2565b60405161013a91906110b6565b61016b6101663660046110c9565b610364565b6040516001600160a01b03909116815260200161013a565b6101966101913660046110fe565b61038d565b005b61014b6101a63660046110c9565b61039c565b6101966103fa565b6101966101c1366004611128565b610448565b61014b6101d43660046110c9565b6104d8565b6101966101e7366004611128565b610529565b61016b6101fa3660046110c9565b610549565b61021261020d366004611164565b610554565b60405190815260200161013a565b61014b61059c565b61019661023636600461117f565b6105ab565b6101966102493660046111d1565b6105b6565b61021261025c3660046110c9565b60086020526000908152604090205481565b61014b61027c3660046110c9565b6105cd565b61012e61028f3660046112ad565b6106de565b61014b6102a23660046110c9565b61070c565b60006001600160e01b03198216632483248360e11b14806102cc57506102cc8261072e565b92915050565b6060600080546102e1906112e0565b80601f016020809104026020016040519081016040528092919081815260200182805461030d906112e0565b801561035a5780601f1061032f5761010080835404028352916020019161035a565b820191906000526020600020905b81548152906001019060200180831161033d57829003601f168201915b5050505050905090565b600061036f8261077e565b506000828152600460205260409020546001600160a01b03166102cc565b6103988282336107b7565b5050565b606060006103a98361070c565b6040516020016103b99190611336565b60405160208183030381529060405290506103d3816107c4565b6040516020016103e3919061158e565b604051602081830303815290604052915050919050565b60016007600082825461040d91906115e9565b9250508190555061042033600754610924565b600780546000908152600860205260408120555461044690610441816104d8565b610989565b565b6001600160a01b03821661047757604051633250574960e11b8152600060048201526024015b60405180910390fd5b60006104848383336109d9565b9050836001600160a01b0316816001600160a01b0316146104d2576040516364283d7b60e01b81526001600160a01b038086166004830152602482018490528216604482015260640161046e565b50505050565b606060006104e583610ad2565b6104ee8461039c565b6040516020016104ff9291906115fc565b6040516020818303038152906040529050610519816107c4565b6040516020016103e391906116c4565b610544838383604051806020016040528060008152506105b6565b505050565b60006102cc8261077e565b60006001600160a01b038216610580576040516322718ad960e21b81526000600482015260240161046e565b506001600160a01b031660009081526003602052604090205490565b6060600180546102e1906112e0565b610398338383610b65565b6105c1848484610448565b6104d284848484610c04565b60606105d88261077e565b50600082815260066020526040812080546105f2906112e0565b80601f016020809104026020016040519081016040528092919081815260200182805461061e906112e0565b801561066b5780601f106106405761010080835404028352916020019161066b565b820191906000526020600020905b81548152906001019060200180831161064e57829003601f168201915b50505050509050600061068960408051602081019091526000815290565b9050805160000361069b575092915050565b8151156106cd5780826040516020016106b5929190611709565b60405160208183030381529060405292505050919050565b6106d684610d2d565b949350505050565b6001600160a01b03918216600090815260056020908152604080832093909416825291909152205460ff1690565b60008181526008602052604090205460609061072781610ad2565b9392505050565b60006001600160e01b031982166380ac58cd60e01b148061075f57506001600160e01b03198216635b5e139f60e01b145b806102cc57506301ffc9a760e01b6001600160e01b03198316146102cc565b6000818152600260205260408120546001600160a01b0316806102cc57604051637e27328960e01b81526004810184905260240161046e565b6105448383836001610d8b565b606081516000036107e357505060408051602081019091526000815290565b60006040518060600160405280604081526020016118dc604091399050600060038451600261081291906115e9565b61081c9190611738565b61082790600461175a565b67ffffffffffffffff81111561083f5761083f6111bb565b6040519080825280601f01601f191660200182016040528015610869576020820181803683370190505b50905060018201602082018586518701602081018051600082525b828410156108df576003840193508351603f8160121c168701518653600186019550603f81600c1c168701518653600186019550603f8160061c168701518653600186019550603f8116870151865350600185019450610884565b90525050855160039006600181146108fe576002811461091157610919565b603d6001830353603d6002830353610919565b603d60018303535b509195945050505050565b6001600160a01b03821661094e57604051633250574960e11b81526000600482015260240161046e565b600061095c838360006109d9565b90506001600160a01b03811615610544576040516339e3563760e11b81526000600482015260240161046e565b60008281526006602052604090206109a182826117c1565b506040518281527ff8e1a15aba9398e019f0b49df1a4fde98ee17ae345cb5f6b5e2c27f5033e8ce79060200160405180910390a15050565b6000828152600260205260408120546001600160a01b0390811690831615610a0657610a06818486610e91565b6001600160a01b03811615610a4457610a23600085600080610d8b565b6001600160a01b038116600090815260036020526040902080546000190190555b6001600160a01b03851615610a73576001600160a01b0385166000908152600360205260409020805460010190555b60008481526002602052604080822080546001600160a01b0319166001600160a01b0389811691821790925591518793918516917fddf252ad1be2c89b69c2b068fc378daa952ba7f163c4a11628f55a4df523b3ef91a4949350505050565b60606000610adf83610ef5565b600101905060008167ffffffffffffffff811115610aff57610aff6111bb565b6040519080825280601f01601f191660200182016040528015610b29576020820181803683370190505b5090508181016020015b600019016f181899199a1a9b1b9c1cb0b131b232b360811b600a86061a8153600a8504945084610b3357509392505050565b6001600160a01b038216610b9757604051630b61174360e31b81526001600160a01b038316600482015260240161046e565b6001600160a01b03838116600081815260056020908152604080832094871680845294825291829020805460ff191686151590811790915591519182527f17307eab39ab6107e8899845ad3d59bd9653f200f220920489ca2b5937696c31910160405180910390a3505050565b6001600160a01b0383163b156104d257604051630a85bd0160e11b81526001600160a01b0384169063150b7a0290610c46903390889087908790600401611881565b6020604051808303816000875af1925050508015610c81575060408051601f3d908101601f19168201909252610c7e918101906118be565b60015b610cea573d808015610caf576040519150601f19603f3d011682016040523d82523d6000602084013e610cb4565b606091505b508051600003610ce257604051633250574960e11b81526001600160a01b038516600482015260240161046e565b805181602001fd5b6001600160e01b03198116630a85bd0160e11b14610d2657604051633250574960e11b81526001600160a01b038516600482015260240161046e565b5050505050565b6060610d388261077e565b506000610d5060408051602081019091526000815290565b90506000815111610d705760405180602001604052806000815250610727565b80610d7a84610ad2565b6040516020016103e3929190611709565b8080610d9f57506001600160a01b03821615155b15610e61576000610daf8461077e565b90506001600160a01b03831615801590610ddb5750826001600160a01b0316816001600160a01b031614155b8015610dee5750610dec81846106de565b155b15610e175760405163a9fbf51f60e01b81526001600160a01b038416600482015260240161046e565b8115610e5f5783856001600160a01b0316826001600160a01b03167f8c5be1e5ebec7d5bd14f71427d1e84f3dd0314c0f7b2291e5b200ac8c7c3b92560405160405180910390a45b505b5050600090815260046020526040902080546001600160a01b0319166001600160a01b0392909216919091179055565b610e9c838383610fcd565b610544576001600160a01b038316610eca57604051637e27328960e01b81526004810182905260240161046e565b60405163177e802f60e01b81526001600160a01b03831660048201526024810182905260440161046e565b60008072184f03e93ff9f4daa797ed6e38ed64bf6a1f0160401b8310610f345772184f03e93ff9f4daa797ed6e38ed64bf6a1f0160401b830492506040015b6d04ee2d6d415b85acef81000000008310610f60576d04ee2d6d415b85acef8100000000830492506020015b662386f26fc100008310610f7e57662386f26fc10000830492506010015b6305f5e1008310610f96576305f5e100830492506008015b6127108310610faa57612710830492506004015b60648310610fbc576064830492506002015b600a83106102cc5760010192915050565b60006001600160a01b038316158015906106d65750826001600160a01b0316846001600160a01b03161480611007575061100784846106de565b806106d65750506000908152600460205260409020546001600160a01b03908116911614919050565b6001600160e01b03198116811461104657600080fd5b50565b60006020828403121561105b57600080fd5b813561072781611030565b60005b83811015611081578181015183820152602001611069565b50506000910152565b600081518084526110a2816020860160208601611066565b601f01601f19169290920160200192915050565b602081526000610727602083018461108a565b6000602082840312156110db57600080fd5b5035919050565b80356001600160a01b03811681146110f957600080fd5b919050565b6000806040838503121561111157600080fd5b61111a836110e2565b946020939093013593505050565b60008060006060848603121561113d57600080fd5b611146846110e2565b9250611154602085016110e2565b9150604084013590509250925092565b60006020828403121561117657600080fd5b610727826110e2565b6000806040838503121561119257600080fd5b61119b836110e2565b9150602083013580151581146111b057600080fd5b809150509250929050565b634e487b7160e01b600052604160045260246000fd5b600080600080608085870312156111e757600080fd5b6111f0856110e2565b93506111fe602086016110e2565b925060408501359150606085013567ffffffffffffffff8082111561122257600080fd5b818701915087601f83011261123657600080fd5b813581811115611248576112486111bb565b604051601f8201601f19908116603f01168101908382118183101715611270576112706111bb565b816040528281528a602084870101111561128957600080fd5b82602086016020830137600060208483010152809550505050505092959194509250565b600080604083850312156112c057600080fd5b6112c9836110e2565b91506112d7602084016110e2565b90509250929050565b600181811c908216806112f457607f821691505b60208210810361131457634e487b7160e01b600052602260045260246000fd5b50919050565b6000815161132c818560208601611066565b9290920192915050565b7f3c73766720786d6c6e733d22687474703a2f2f7777772e77332e6f72672f323081527f30302f73766722207072657365727665417370656374526174696f3d22784d6960208201527f6e594d696e206d656574222076696577426f783d223020302033353020333530604082015261111f60f11b60608201527f3c7374796c653e2e62617365207b2066696c6c3a2077686974653b20666f6e7460628201527f2d66616d696c793a2073657269663b20666f6e742d73697a653a20313470783b608282015269103e9e17b9ba3cb6329f60b11b60a28201527f3c726563742077696474683d223130302522206865696768743d22313030252260ac8201526f103334b6361e91313630b1b59110179f60811b60cc8201527f3c7465787420783d223530252220793d223430252220636c6173733d2262617360dc8201527f652220646f6d696e616e742d626173656c696e653d226d6964646c652220746560fc820152723c3a16b0b731b437b91e9136b4b2323632911f60691b61011c820152662bb0b93934b7b960c91b61012f820152600061072761157c6114e46115766115626114f7610136880184565b661e17ba32bc3a1f60c91b815260070190565b7f3c7465787420783d223530252220793d223530252220636c6173733d2262617381527f652220646f6d696e616e742d626173656c696e653d226d6964646c65222074656020820152723c3a16b0b731b437b91e9136b4b2323632911f60691b604082015260530190565b6702632bb32b6399d160c51b815260080190565b8661131a565b651e17b9bb339f60d11b815260060190565b7f646174613a696d6167652f7376672b786d6c3b6261736536342c0000000000008152600082516115c681601a850160208701611066565b91909101601a0192915050565b634e487b7160e01b600052601160045260246000fd5b808201808211156102cc576102cc6115d3565b607b60f81b81527f226e616d65223a2022436861696e20426174746c65732023000000000000000060018201526000835161163e816019850160208801611066565b61088b60f21b60199184019182018190527f226465736372697074696f6e223a2022426174746c6573206f6e20636861696e601b830152603b820152691134b6b0b3b2911d101160b11b603d82015283516116a0816047840160208801611066565b601160f91b60479290910191820152607d60f81b6048820152604901949350505050565b7f646174613a6170706c69636174696f6e2f6a736f6e3b6261736536342c0000008152600082516116fc81601d850160208701611066565b91909101601d0192915050565b6000835161171b818460208801611066565b83519083019061172f818360208801611066565b01949350505050565b60008261175557634e487b7160e01b600052601260045260246000fd5b500490565b80820281158282048414176102cc576102cc6115d3565b601f821115610544576000816000526020600020601f850160051c8101602086101561179a5750805b601f850160051c820191505b818110156117b9578281556001016117a6565b505050505050565b815167ffffffffffffffff8111156117db576117db6111bb565b6117ef816117e984546112e0565b84611771565b602080601f831160018114611824576000841561180c5750858301515b600019600386901b1c1916600185901b1785556117b9565b600085815260208120601f198616915b8281101561185357888601518255948401946001909101908401611834565b50858210156118715787850151600019600388901b60f8161c191681555b5050505050600190811b01905550565b6001600160a01b03858116825284166020820152604081018390526080606082018190526000906118b49083018461108a565b9695505050505050565b6000602082840312156118d057600080fd5b81516107278161103056fe4142434445464748494a4b4c4d4e4f505152535455565758595a6162636465666768696a6b6c6d6e6f707172737475767778797a303132333435363738392b2fa2646970667358221220a1bd3f5acd2e51f60b450a216194dd06f441990d78ac135f998568740ed02ad464736f6c63430008180033","linkReferences":{}},"methodIdentifiers":{"approve(address,uint256)":"095ea7b3","balanceOf(address)":"70a08231","generateCharacter(uint256)":"0daefed5","getApproved(uint256)":"081812fc","getLevels(uint256)":"f43785f9","getTokenURI(uint256)":"3bb3a24d","isApprovedForAll(address,address)":"e985e9c5","mint()":"1249c58b","name()":"06fdde03","ownerOf(uint256)":"6352211e","safeTransferFrom(address,address,uint256)":"42842e0e","safeTransferFrom(address,address,uint256,bytes)":"b88d4fde","setApprovalForAll(address,bool)":"a22cb465","supportsInterface(bytes4)":"01ffc9a7","symbol()":"95d89b41","tokenIdToLevels(uint256)":"c6a4342f","tokenURI(uint256)":"c87b56dd","transferFrom(address,address,uint256)":"23b872dd"},"id":0}