{"abi":[{"type":"function","name":"init","inputs":[],"outputs":[],"stateMutability":"nonpayable"}],"bytecode":{"object":"0x608060405234801561001057600080fd5b50610149806100206000396000f3fe608060405234801561001057600080fd5b506004361061002b5760003560e01c8063e1c7392a14610030575b600080fd5b6101117fc8fcad8db84d3cc18b4c41d551ea0ee66dd599cde068d998e57d5e09332c131f6020527f699d9daa71b280d05a152715774afa0a81a312594b2d731d6b0b2552b7d6f69f8054600160ff1991821681179092557ff97e938d8af42f52387bb74b8b526fda8f184cc2aa534340a8d75a88fbecc77580548216831790557f65d510a5d8f7ef134ec444f7f34ee808c8eeb5177cdfd16be0c40fe1ab43369580548216831790556307f5828d60e41b6000527f5622121b47b8cd0120c4efe45dd5483242f54a3d49bd7679be565d47694918c380549091169091179055565b00fea26469706673582212207c52ddc784760700e4545777ee0241e7f351fa52c3ab67c95749c9d84f610bda64736f6c63430008180033","linkReferences":{}},"methodIdentifiers":{"init()":"e1c7392a"},"id":16}