{"abi":[{"type":"function","name":"allowance","inputs":[{"name":"_owner","type":"address","internalType":"address"},{"name":"_spender","type":"address","internalType":"address"}],"outputs":[{"name":"remaining_","type":"uint256","internalType":"uint256"}],"stateMutability":"view"},{"type":"function","name":"approve","inputs":[{"name":"_spender","type":"address","internalType":"address"},{"name":"_value","type":"uint256","internalType":"uint256"}],"outputs":[{"name":"success","type":"bool","internalType":"bool"}],"stateMutability":"nonpayable"},{"type":"function","name":"balanceOf","inputs":[{"name":"_owner","type":"address","internalType":"address"}],"outputs":[{"name":"balance","type":"uint256","internalType":"uint256"}],"stateMutability":"view"},{"type":"function","name":"decimals","inputs":[],"outputs":[{"name":"","type":"uint8","internalType":"uint8"}],"stateMutability":"view"},{"type":"function","name":"getLastGuy","inputs":[],"outputs":[{"name":"","type":"address","internalType":"address"}],"stateMutability":"view"},{"type":"function","name":"mintTo","inputs":[{"name":"_user","type":"address","internalType":"address"}],"outputs":[],"stateMutability":"nonpayable"},{"type":"function","name":"name","inputs":[],"outputs":[{"name":"","type":"string","internalType":"string"}],"stateMutability":"view"},{"type":"function","name":"symbol","inputs":[],"outputs":[{"name":"","type":"string","internalType":"string"}],"stateMutability":"view"},{"type":"function","name":"totalSupply","inputs":[],"outputs":[{"name":"","type":"uint256","internalType":"uint256"}],"stateMutability":"view"},{"type":"function","name":"transfer","inputs":[{"name":"_to","type":"address","internalType":"address"},{"name":"_value","type":"uint256","internalType":"uint256"}],"outputs":[{"name":"success","type":"bool","internalType":"bool"}],"stateMutability":"nonpayable"},{"type":"function","name":"transferFrom","inputs":[{"name":"_from","type":"address","internalType":"address"},{"name":"_to","type":"address","internalType":"address"},{"name":"_value","type":"uint256","internalType":"uint256"}],"outputs":[{"name":"success","type":"bool","internalType":"bool"}],"stateMutability":"nonpayable"},{"type":"event","name":"Approval","inputs":[{"name":"_owner","type":"address","indexed":true,"internalType":"address"},{"name":"_spender","type":"address","indexed":true,"internalType":"address"},{"name":"_value","type":"uint256","indexed":false,"internalType":"uint256"}],"anonymous":false},{"type":"event","name":"Transfer","inputs":[{"name":"_from","type":"address","indexed":true,"internalType":"address"},{"name":"_to","type":"address","indexed":true,"internalType":"address"},{"name":"_value","type":"uint256","indexed":false,"internalType":"uint256"}],"anonymous":false},{"type":"event","name":"y","inputs":[{"name":"","type":"address","indexed":false,"internalType":"address"}],"anonymous":false},{"type":"error","name":"NotDiamondOwner","inputs":[]}],"bytecode":{"object":"0x608060405234801561001057600080fd5b50610862806100206000396000f3fe608060405234801561001057600080fd5b50600436106100a95760003560e01c806370a082311161007157806370a0823114610129578063755edd171461015257806376b463591461016757806395d89b4114610190578063a9059cbb14610198578063dd62ed3e146101ab57600080fd5b806306fdde03146100ae578063095ea7b3146100cc57806318160ddd146100ef57806323b872dd14610101578063313ce56714610114575b600080fd5b6100b66101e4565b6040516100c3919061068a565b60405180910390f35b6100df6100da3660046106f5565b610279565b60405190151581526020016100c3565b6004545b6040519081526020016100c3565b6100df61010f36600461071f565b6102e5565b60055460405160ff90911681526020016100c3565b6100f361013736600461075b565b6001600160a01b031660009081526006602052604090205490565b61016561016036600461075b565b610444565b005b60055461010090046001600160a01b03166040516001600160a01b0390911681526020016100c3565b6100b66104f3565b6100df6101a63660046106f5565b610505565b6100f36101b936600461077d565b6001600160a01b03918216600090815260076020908152604080832093909416825291909152205490565b6060600060020180546101f6906107b0565b80601f0160208091040260200160405190810160405280929190818152602001828054610222906107b0565b801561026f5780601f106102445761010080835404028352916020019161026f565b820191906000526020600020905b81548152906001019060200180831161025257829003601f168201915b5050505050905090565b3360008181526007602090815260408083206001600160a01b038716808552925280832085905551919290917f8c5be1e5ebec7d5bd14f71427d1e84f3dd0314c0f7b2291e5b200ac8c7c3b925906102d49086815260200190565b60405180910390a350600192915050565b6001600160a01b03831660008181526007602090815260408083203380855292528220549192148061033a57506001600160a01b03851660009081526007602090815260408083203384529091529020548311155b156103df576103498382610800565b6001600160a01b0386166000908152600760209081526040808320338452909152902055610378858585610532565b336001600160a01b0386167f8c5be1e5ebec7d5bd14f71427d1e84f3dd0314c0f7b2291e5b200ac8c7c3b9256103ae8685610800565b60405190815260200160405180910390a360058054610100600160a81b03191633610100021790556001915061043c565b60405162461bcd60e51b815260206004820152602760248201527f45524332303a204e6f7420656e6f75676820616c6c6f77616e636520746f20746044820152663930b739b332b960c91b60648201526084015b60405180910390fd5b509392505050565b61044c61063b565b6001600160a01b038116600090815260066020526040812080546a52b7d2dcc80cd2e400000092839291610481908490610819565b9091555050600480546bffffffffffffffffffffffff831691906000906104a9908490610819565b90915550506040518181526001600160a01b038316906000907fddf252ad1be2c89b69c2b068fc378daa952ba7f163c4a11628f55a4df523b3ef9060200160405180910390a35050565b6060600060030180546101f6906107b0565b60058054610100600160a81b03191633610100021790556000610529338484610532565b50600192915050565b336000908152600660205260408120548281101561059e5760405162461bcd60e51b8152602060048201526024808201527f45524332303a204e6f7420656e6f75676820746f6b656e7320746f207472616e60448201526339b332b960e11b6064820152608401610433565b6105a88382610800565b6001600160a01b03808716600090815260068501602052604080822093909355908616815290812080548592906105e0908490610819565b92505081905550836001600160a01b0316856001600160a01b03167fddf252ad1be2c89b69c2b068fc378daa952ba7f163c4a11628f55a4df523b3ef8560405161062c91815260200190565b60405180910390a35050505050565b7fc8fcad8db84d3cc18b4c41d551ea0ee66dd599cde068d998e57d5e09332c131c600401546001600160a01b0316331461068857604051630305808160e41b815260040160405180910390fd5b565b60006020808352835180602085015260005b818110156106b85785810183015185820160400152820161069c565b506000604082860101526040601f19601f8301168501019250505092915050565b80356001600160a01b03811681146106f057600080fd5b919050565b6000806040838503121561070857600080fd5b610711836106d9565b946020939093013593505050565b60008060006060848603121561073457600080fd5b61073d846106d9565b925061074b602085016106d9565b9150604084013590509250925092565b60006020828403121561076d57600080fd5b610776826106d9565b9392505050565b6000806040838503121561079057600080fd5b610799836106d9565b91506107a7602084016106d9565b90509250929050565b600181811c908216806107c457607f821691505b6020821081036107e457634e487b7160e01b600052602260045260246000fd5b50919050565b634e487b7160e01b600052601160045260246000fd5b81810381811115610813576108136107ea565b92915050565b80820180821115610813576108136107ea56fea2646970667358221220434fc99ab55e61c8e09851bfc1b08742de7e60a3cb3d07cbc28b89fccb416e9c64736f6c63430008180033","linkReferences":{}},"methodIdentifiers":{"allowance(address,address)":"dd62ed3e","approve(address,uint256)":"095ea7b3","balanceOf(address)":"70a08231","decimals()":"313ce567","getLastGuy()":"76b46359","mintTo(address)":"755edd17","name()":"06fdde03","symbol()":"95d89b41","totalSupply()":"18160ddd","transfer(address,uint256)":"a9059cbb","transferFrom(address,address,uint256)":"23b872dd"},"id":6}