{"abi":[{"type":"function","name":"bid","inputs":[{"name":"auctionId","type":"uint256","internalType":"uint256"},{"name":"price","type":"uint256","internalType":"uint256"}],"outputs":[],"stateMutability":"nonpayable"},{"type":"function","name":"closeAuction","inputs":[{"name":"auctionId","type":"uint256","internalType":"uint256"}],"outputs":[],"stateMutability":"nonpayable"},{"type":"function","name":"createAuction","inputs":[{"name":"_contractAddress","type":"address","internalType":"address"},{"name":"_tokenId","type":"uint256","internalType":"uint256"},{"name":"_startingPrice","type":"uint256","internalType":"uint256"},{"name":"_closeTime","type":"uint256","internalType":"uint256"}],"outputs":[],"stateMutability":"nonpayable"},{"type":"function","name":"getAuction","inputs":[{"name":"auctionId","type":"uint256","internalType":"uint256"}],"outputs":[{"name":"","type":"tuple","internalType":"struct LibAppStorage.Auction","components":[{"name":"id","type":"uint256","internalType":"uint256"},{"name":"author","type":"address","internalType":"address"},{"name":"tokenId","type":"uint256","internalType":"uint256"},{"name":"startingPrice","type":"uint256","internalType":"uint256"},{"name":"closeTime","type":"uint256","internalType":"uint256"},{"name":"nftContractAddress","type":"address","internalType":"address"},{"name":"closed","type":"bool","internalType":"bool"}]}],"stateMutability":"view"},{"type":"function","name":"getBid","inputs":[{"name":"auctionId","type":"uint256","internalType":"uint256"}],"outputs":[{"name":"","type":"tuple[]","internalType":"struct LibAppStorage.Bid[]","components":[{"name":"author","type":"address","internalType":"address"},{"name":"amount","type":"uint256","internalType":"uint256"},{"name":"auctionId","type":"uint256","internalType":"uint256"}]}],"stateMutability":"view"},{"type":"event","name":"Transfer","inputs":[{"name":"_from","type":"address","indexed":true,"internalType":"address"},{"name":"_to","type":"address","indexed":true,"internalType":"address"},{"name":"_value","type":"uint256","indexed":false,"internalType":"uint256"}],"anonymous":false},{"type":"event","name":"y","inputs":[{"name":"","type":"bool","indexed":false,"internalType":"bool"}],"anonymous":false}],"bytecode":{"object":"0x608060405234801561001057600080fd5b50610fa6806100206000396000f3fe608060405234801561001057600080fd5b50600436106100575760003560e01c8063236ed8f31461005c5780633c889e6f14610071578063598647f81461009a57806361beb1d7146100ad57806378bd7935146100c0575b600080fd5b61006f61006a366004610da9565b610139565b005b61008461007f366004610da9565b6103a1565b6040516100919190610dc2565b60405180910390f35b61006f6100a8366004610e24565b61042f565b61006f6100bb366004610e5e565b61079b565b6100d36100ce366004610da9565b610abb565b6040516100919190600060e08201905082518252602083015160018060a01b0380821660208501526040850151604085015260608501516060850152608085015160808501528060a08601511660a0850152505060c0830151151560c083015292915050565b600080600001828154811061015057610150610e99565b906000526020600020906006020190508060050160149054906101000a900460ff16156101985760405162461bcd60e51b815260040161018f90610eaf565b60405180910390fd5b80600401544210156101df5760405162461bcd60e51b815260206004820152601060248201526f1512535157d393d517d4915050d2115160821b604482015260640161018f565b6000828152600160208190526040909120805433926101fd91610eed565b8154811061020d5761020d610e99565b60009182526020909120600390910201546001600160a01b0316148061023f575060018101546001600160a01b031633145b6102815760405162461bcd60e51b81526020600482015260136024820152721653d557d113d39517d210559157d49251d215606a1b604482015260640161018f565b600180820154600084815260208390526040902080546102d99330936001600160a01b031692916102b29190610eed565b815481106102c2576102c2610e99565b906000526020600020906003020160010154610ba0565b6005810154600083815260016020819052604090912080546001600160a01b03909316926323b872dd923092916103109190610eed565b8154811061032057610320610e99565b6000918252602090912060039091020154600285015460405160e085901b6001600160e01b03191681526001600160a01b0393841660048201529290911660248301526044820152606401600060405180830381600087803b15801561038557600080fd5b505af1158015610399573d6000803e3d6000fd5b505050505050565b6000818152600160209081526040808320805482518185028101850190935280835260609492939192909184015b82821015610424576000848152602090819020604080516060810182526003860290920180546001600160a01b03168352600180820154848601526002909101549183019190915290835290920191016103cf565b505050509050919050565b600080548390811061044357610443610e99565b906000526020600020906006020160050160149054906101000a900460ff161561047f5760405162461bcd60e51b815260040161018f90610eaf565b600080548390811061049357610493610e99565b90600052602060002090600602016004015442106104c35760405162461bcd60e51b815260040161018f90610eaf565b3360009081526006602052604090205481106105185760405162461bcd60e51b8152602060048201526014602482015273494e53554646494349454e545f42414c414e434560601b604482015260640161018f565b600082815260016020526040812054900361060f57600080548390811061054157610541610e99565b9060005260206000209060060201600301548110156105a25760405162461bcd60e51b815260206004820152601e60248201527f5354415254494e475f50524943455f4d5553545f42455f475245415445520000604482015260640161018f565b6040805160608101825233815260208082019384528183018581526000958652600180835293862080548086018255908752919095209151600390910290910180546001600160a01b0319166001600160a01b039092169190911781559151908201559051600290910155565b60008281526001602081905260409091208054909161062d91610eed565b8154811061063d5761063d610e99565b90600052602060002090600302016001015481116106ac5760405162461bcd60e51b815260206004820152602660248201527f50524943455f4d5553545f42455f475245415445525f5448414e5f4c4153545f60448201526510925111115160d21b606482015260840161018f565b60006106b782610ca9565b600084815260016020819052604090912080549293506107189284926106dc91610eed565b815481106106ec576106ec610e99565b60009182526020909120600390910201546005546001600160a01b039182169161010090910416610cc8565b6040805160608101909152338152600090602081016107378486610eed565b815260209081018690526000958652600180825260408088208054808401825590895297839020845160039099020180546001600160a01b0319166001600160a01b0390991698909817885591830151908701550151600290940193909355505050565b6001600160a01b0384166107f15760405162461bcd60e51b815260206004820152601860248201527f494e56414c49445f434f4e54524143545f414444524553530000000000000000604482015260640161018f565b6040516331a9108f60e11b81526004810184905233906001600160a01b03861690636352211e90602401602060405180830381865afa158015610838573d6000803e3d6000fd5b505050506040513d601f19601f8201168201806040525081019061085c9190610f00565b6001600160a01b03161461089e5760405162461bcd60e51b81526020600482015260096024820152682727aa2fa7aba722a960b91b604482015260640161018f565b4281116108e25760405162461bcd60e51b8152602060048201526012602482015271494e56414c49445f434c4f53455f54494d4560701b604482015260640161018f565b6040516323b872dd60e01b8152336004820152306024820152604481018490526001600160a01b038516906323b872dd90606401600060405180830381600087803b15801561093057600080fd5b505af1158015610944573d6000803e3d6000fd5b50506040805160e08101825260008054808352336020840190815293830198895260608301978852608083019687526001600160a01b03998a1660a0840190815260c08401838152600183018455928052925160069091027f290decd9548b62a8d60345a988386fc84ba6bc95484008f6362f93160ef3e56381019190915592517f290decd9548b62a8d60345a988386fc84ba6bc95484008f6362f93160ef3e56484018054918b166001600160a01b031990921691909117905596517f290decd9548b62a8d60345a988386fc84ba6bc95484008f6362f93160ef3e56583015594517f290decd9548b62a8d60345a988386fc84ba6bc95484008f6362f93160ef3e56682015592517f290decd9548b62a8d60345a988386fc84ba6bc95484008f6362f93160ef3e567840155505090517f290decd9548b62a8d60345a988386fc84ba6bc95484008f6362f93160ef3e568909101805492511515600160a01b026001600160a81b03199093169190931617179055565b610b0f6040518060e001604052806000815260200160006001600160a01b0316815260200160008152602001600081526020016000815260200160006001600160a01b031681526020016000151581525090565b6000805483908110610b2357610b23610e99565b60009182526020918290206040805160e0810182526006939093029091018054835260018101546001600160a01b039081169484019490945260028101549183019190915260038101546060830152600481015460808301526005015491821660a0820152600160a01b90910460ff16151560c082015292915050565b3360009081526006602052604081205482811015610c0c5760405162461bcd60e51b8152602060048201526024808201527f45524332303a204e6f7420656e6f75676820746f6b656e7320746f207472616e60448201526339b332b960e11b606482015260840161018f565b610c168382610eed565b6001600160a01b0380871660009081526006850160205260408082209390935590861681529081208054859290610c4e908490610f24565b92505081905550836001600160a01b0316856001600160a01b03167fddf252ad1be2c89b69c2b068fc378daa952ba7f163c4a11628f55a4df523b3ef85604051610c9a91815260200190565b60405180910390a35050505050565b60006064610cb883600a610f37565b610cc29190610f4e565b92915050565b60006064610cd7856014610f37565b610ce19190610f4e565b905060006064610cf2866014610f37565b610cfc9190610f4e565b905060006064610d0d87601e610f37565b610d179190610f4e565b905060006064610d28886014610f37565b610d329190610f4e565b905060006064610d4389600a610f37565b610d4d9190610f4e565b9050610d6f60007342acd393442a1021f01c796a23901f3852e89ff386610ba0565b610d7b60008885610ba0565b610d8760008084610ba0565b610d9360008087610ba0565b610d9f60008783610ba0565b5050505050505050565b600060208284031215610dbb57600080fd5b5035919050565b602080825282518282018190526000919060409081850190868401855b82811015610e1757815180516001600160a01b0316855286810151878601528501518585015260609093019290850190600101610ddf565b5091979650505050505050565b60008060408385031215610e3757600080fd5b50508035926020909101359150565b6001600160a01b0381168114610e5b57600080fd5b50565b60008060008060808587031215610e7457600080fd5b8435610e7f81610e46565b966020860135965060408601359560600135945092505050565b634e487b7160e01b600052603260045260246000fd5b6020808252600e908201526d105550d51253d397d0d313d4d15160921b604082015260600190565b634e487b7160e01b600052601160045260246000fd5b81810381811115610cc257610cc2610ed7565b600060208284031215610f1257600080fd5b8151610f1d81610e46565b9392505050565b80820180821115610cc257610cc2610ed7565b8082028115828204841417610cc257610cc2610ed7565b600082610f6b57634e487b7160e01b600052601260045260246000fd5b50049056fea26469706673582212204041930337fb912816a9b9ee5b067058c2459f6ddb572acca66dde3f064666ba64736f6c63430008180033","linkReferences":{}},"methodIdentifiers":{"bid(uint256,uint256)":"598647f8","closeAuction(uint256)":"236ed8f3","createAuction(address,uint256,uint256,uint256)":"61beb1d7","getAuction(uint256)":"78bd7935","getBid(uint256)":"3c889e6f"},"id":3}